{
  "transactions": [
    {
      "hash": "0xf2b6b5454a341e1213c81d7ea4b5cfce20fef9a542237eb6b45f946eb598948a",
      "transactionType": "CALL",
      "contractName": null,
      "contractAddress": "0xF731a40b4834626bbFaAA330aB71e41B2de8Ffff",
      "function": "approve(address,uint256)",
      "arguments": [
        "0x815B6202aEF5199e3DE73688A969D26D1506C55B",
        "4000000000000000000"
      ],
      "transaction": {
        "type": "0x02",
        "from": "0x51c2b2e1073432eac568187bab883ede1e31e9ea",
        "to": "0xf731a40b4834626bbfaaa330ab71e41b2de8ffff",
        "gas": "0x10915",
        "value": "0x0",
        "data": "0x095ea7b3000000000000000000000000815b6202aef5199e3de73688a969d26d1506c55b0000000000000000000000000000000000000000000000003782dace9d900000",
        "nonce": "0x7",
        "accessList": []
      },
      "additionalContracts": [],
      "isFixedGasLimit": false
    },
    {
      "hash": "0x4604360489dc1ba5388434abd8a2f9b84d3762baee14d7790f38f79b65416952",
      "transactionType": "CALL",
      "contractName": null,
      "contractAddress": "0x815B6202aEF5199e3DE73688A969D26D1506C55B",
      "function": "deposit(address,uint256)",
      "arguments": [
        "0xF731a40b4834626bbFaAA330aB71e41B2de8Ffff",
        "4000000000000000000"
      ],
      "transaction": {
        "type": "0x02",
        "from": "0x51c2b2e1073432eac568187bab883ede1e31e9ea",
        "to": "0x815b6202aef5199e3de73688a969d26d1506c55b",
        "gas": "0x4d985",
        "value": "0x0",
        "data": "0x47e7ef24000000000000000000000000f731a40b4834626bbfaaa330ab71e41b2de8ffff0000000000000000000000000000000000000000000000003782dace9d900000",
        "nonce": "0x8",
        "accessList": []
      },
      "additionalContracts": [],
      "isFixedGasLimit": false
    }
  ],
  "receipts": [
    {
      "transactionHash": "0xf2b6b5454a341e1213c81d7ea4b5cfce20fef9a542237eb6b45f946eb598948a",
      "transactionIndex": "0x2",
      "blockHash": "0x047b46468567cb06442dd303f4238e9b62684e93e085b3911b844c14e89fb125",
      "blockNumber": "0x71604c",
      "from": "0x51c2B2E1073432Eac568187bAB883ede1E31E9EA",
      "to": "0xF731a40b4834626bbFaAA330aB71e41B2de8Ffff",
      "cumulativeGasUsed": "0x6e06b",
      "gasUsed": "0xb541",
      "contractAddress": null,
      "logs": [
        {
          "address": "0xF731a40b4834626bbFaAA330aB71e41B2de8Ffff",
          "topics": [
            "0x8c5be1e5ebec7d5bd14f71427d1e84f3dd0314c0f7b2291e5b200ac8c7c3b925",
            "0x00000000000000000000000051c2b2e1073432eac568187bab883ede1e31e9ea",
            "0x000000000000000000000000815b6202aef5199e3de73688a969d26d1506c55b"
          ],
          "data": "0x0000000000000000000000000000000000000000000000003782dace9d900000",
          "blockHash": "0x047b46468567cb06442dd303f4238e9b62684e93e085b3911b844c14e89fb125",
          "blockNumber": "0x71604c",
          "transactionHash": "0xf2b6b5454a341e1213c81d7ea4b5cfce20fef9a542237eb6b45f946eb598948a",
          "transactionIndex": "0x2",
          "logIndex": "0x15",
          "removed": false
        },
        {
          "address": "0x0000000000000000000000000000000000001010",
          "topics": [
            "0x4dfe1bbbcf077ddc3e01291eea2d5c70c2b422b415d95645b9adcfd678cb1d63",
            "0x0000000000000000000000000000000000000000000000000000000000001010",
            "0x00000000000000000000000051c2b2e1073432eac568187bab883ede1e31e9ea",
            "0x0000000000000000000000006ab3d36c46ecfb9b9c0bd51cb1c3da5a2c81cea6"
          ],
          "data": "0x00000000000000000000000000000000000000000000000000007e9ab95dde000000000000000000000000000000000000000000000000000296c1fa701e125700000000000000000000000000000000000000000000018e2a8b60f3ea964ad40000000000000000000000000000000000000000000000000296435fb6c0345700000000000000000000000000000000000000000000018e2a8bdf8ea3f428d4",
          "blockHash": "0x047b46468567cb06442dd303f4238e9b62684e93e085b3911b844c14e89fb125",
          "blockNumber": "0x71604c",
          "transactionHash": "0xf2b6b5454a341e1213c81d7ea4b5cfce20fef9a542237eb6b45f946eb598948a",
          "transactionIndex": "0x2",
          "logIndex": "0x16",
          "removed": false
        }
      ],
      "status": "0x1",
      "logsBloom": "0x00000000080000000000000400008000000000000000000000000000000000000000000000004000000000000000000000008000000000000000000000200000000000080000000000000000000000800000000000000000000100000000000000000000000000000000000000000000000000000000001080000000000000000000000000000000000000000000000000000000000000000010000000000000260000000000000000000000000000000000000000000000000000000000004000000000000000000001800000000000000000010000000000100000000000000010000000000000000400000000000000000000000000100000000000100000",
      "type": "0x2",
      "effectiveGasPrice": "0xb2d05e0f"
    },
    {
      "transactionHash": "0x4604360489dc1ba5388434abd8a2f9b84d3762baee14d7790f38f79b65416952",
      "transactionIndex": "0x3",
      "blockHash": "0x047b46468567cb06442dd303f4238e9b62684e93e085b3911b844c14e89fb125",
      "blockNumber": "0x71604c",
      "from": "0x51c2B2E1073432Eac568187bAB883ede1E31E9EA",
      "to": "0x815B6202aEF5199e3DE73688A969D26D1506C55B",
      "cumulativeGasUsed": "0xa6342",
      "gasUsed": "0x382d7",
      "contractAddress": null,
      "logs": [
        {
          "address": "0xF731a40b4834626bbFaAA330aB71e41B2de8Ffff",
          "topics": [
            "0xddf252ad1be2c89b69c2b068fc378daa952ba7f163c4a11628f55a4df523b3ef",
            "0x00000000000000000000000051c2b2e1073432eac568187bab883ede1e31e9ea",
            "0x0000000000000000000000000000000000000000000000000000000000000000"
          ],
          "data": "0x0000000000000000000000000000000000000000000000003666a33b1f880000",
          "blockHash": "0x047b46468567cb06442dd303f4238e9b62684e93e085b3911b844c14e89fb125",
          "blockNumber": "0x71604c",
          "transactionHash": "0x4604360489dc1ba5388434abd8a2f9b84d3762baee14d7790f38f79b65416952",
          "transactionIndex": "0x3",
          "logIndex": "0x17",
          "removed": false
        },
        {
          "address": "0xF731a40b4834626bbFaAA330aB71e41B2de8Ffff",
          "topics": [
            "0xddf252ad1be2c89b69c2b068fc378daa952ba7f163c4a11628f55a4df523b3ef",
            "0x00000000000000000000000051c2b2e1073432eac568187bab883ede1e31e9ea",
            "0x000000000000000000000000815b6202aef5199e3de73688a969d26d1506c55b"
          ],
          "data": "0x000000000000000000000000000000000000000000000000011c37937e080000",
          "blockHash": "0x047b46468567cb06442dd303f4238e9b62684e93e085b3911b844c14e89fb125",
          "blockNumber": "0x71604c",
          "transactionHash": "0x4604360489dc1ba5388434abd8a2f9b84d3762baee14d7790f38f79b65416952",
          "transactionIndex": "0x3",
          "logIndex": "0x18",
          "removed": false
        },
        {
          "address": "0x815B6202aEF5199e3DE73688A969D26D1506C55B",
          "topics": [
            "0x6b9c0faf86552282d525a58c725c40f0d9aee3989ea5fdced0e1036bf03e8b53",
            "0x0000000000000000000000000000000000000000000000000000000000000000"
          ],
          "data": "0x000000000000000000000000f731a40b4834626bbfaaa330ab71e41b2de8ffff00000000000000000000000051c2b2e1073432eac568187bab883ede1e31e9ea0000000000000000000000000000000000000000000000003782dace9d900000",
          "blockHash": "0x047b46468567cb06442dd303f4238e9b62684e93e085b3911b844c14e89fb125",
          "blockNumber": "0x71604c",
          "transactionHash": "0x4604360489dc1ba5388434abd8a2f9b84d3762baee14d7790f38f79b65416952",
          "transactionIndex": "0x3",
          "logIndex": "0x19",
          "removed": false
        },
        {
          "address": "0x0000000000000000000000000000000000001010",
          "topics": [
            "0x4dfe1bbbcf077ddc3e01291eea2d5c70c2b422b415d95645b9adcfd678cb1d63",
            "0x0000000000000000000000000000000000000000000000000000000000001010",
            "0x00000000000000000000000051c2b2e1073432eac568187bab883ede1e31e9ea",
            "0x0000000000000000000000006ab3d36c46ecfb9b9c0bd51cb1c3da5a2c81cea6"
          ],
          "data": "0x000000000000000000000000000000000000000000000000000273d516baf2000000000000000000000000000000000000000000000000000296435fb6b5958800000000000000000000000000000000000000000000018e2a8bdf8ea3f428d40000000000000000000000000000000000000000000000000293cf8a9ffaa38800000000000000000000000000000000000000000000018e2a8e5363baaf1ad4",
          "blockHash": "0x047b46468567cb06442dd303f4238e9b62684e93e085b3911b844c14e89fb125",
          "blockNumber": "0x71604c",
          "transactionHash": "0x4604360489dc1ba5388434abd8a2f9b84d3762baee14d7790f38f79b65416952",
          "transactionIndex": "0x3",
          "logIndex": "0x1a",
          "removed": false
        }
      ],
      "status": "0x1",
      "logsBloom": "0x00000000080000000000000400008000020000000000000000000000000000000000000000004000000000000000000000008000000000000000000000000000000000080000000000000008000000800020000000000000000100000001000000000000020000000000000000000800000000000000001080000010000000000000000000000000000000000000000000000000000000000010000000000040240000000000000000000000000000000000000000000000000000000000004000000802000000000001804000000000000000010000000000100000000020000000000000000000000400000000000000000000000000100000000000100000",
      "type": "0x2",
      "effectiveGasPrice": "0xb2d05e0f"
    }
  ],
  "libraries": [],
  "pending": [],
  "returns": {},
  "timestamp": 1716544942,
  "chain": 80002,
  "commit": "47e1ff6"
}