{
  "transactions": [
    {
      "hash": "0xb897441c15f4ecaa1e1f0deb786eb30725be595562c38a242106059d130506f5",
      "transactionType": "CALL",
      "contractName": null,
      "contractAddress": "0x815B6202aEF5199e3DE73688A969D26D1506C55B",
      "function": "addSupportedToken(address)",
      "arguments": [
        "0xF731a40b4834626bbFaAA330aB71e41B2de8Ffff"
      ],
      "transaction": {
        "type": "0x02",
        "from": "0x51c2b2e1073432eac568187bab883ede1e31e9ea",
        "to": "0x815b6202aef5199e3de73688a969d26d1506c55b",
        "gas": "0x1f606",
        "value": "0x0",
        "data": "0x6d69fcaf000000000000000000000000f731a40b4834626bbfaaa330ab71e41b2de8ffff",
        "nonce": "0x3",
        "accessList": []
      },
      "additionalContracts": [],
      "isFixedGasLimit": false
    }
  ],
  "receipts": [
    {
      "transactionHash": "0xb897441c15f4ecaa1e1f0deb786eb30725be595562c38a242106059d130506f5",
      "transactionIndex": "0x0",
      "blockHash": "0xd25199baff828bda5e3684a0da092337e1d9281419160500988624d7bd673f8f",
      "blockNumber": "0x70d592",
      "from": "0x51c2B2E1073432Eac568187bAB883ede1E31E9EA",
      "to": "0x815B6202aEF5199e3DE73688A969D26D1506C55B",
      "cumulativeGasUsed": "0x16b75",
      "gasUsed": "0x16b75",
      "contractAddress": null,
      "logs": [
        {
          "address": "0x0000000000000000000000000000000000001010",
          "topics": [
            "0x4dfe1bbbcf077ddc3e01291eea2d5c70c2b422b415d95645b9adcfd678cb1d63",
            "0x0000000000000000000000000000000000000000000000000000000000001010",
            "0x00000000000000000000000051c2b2e1073432eac568187bab883ede1e31e9ea",
            "0x000000000000000000000000ede32b0c9587b92ede83665477f7ec261fd85f0a"
          ],
          "data": "0x0000000000000000000000000000000000000000000000000000fddf2e84f60000000000000000000000000000000000000000000000000002a4cdf0013547c700000000000000000000000000000000000000000000000924fc71bb2c288df800000000000000000000000000000000000000000000000002a3d010d2b051c700000000000000000000000000000000000000000000000924fd6f9a5aad83f8",
          "blockHash": "0xd25199baff828bda5e3684a0da092337e1d9281419160500988624d7bd673f8f",
          "blockNumber": "0x70d592",
          "transactionHash": "0xb897441c15f4ecaa1e1f0deb786eb30725be595562c38a242106059d130506f5",
          "transactionIndex": "0x0",
          "logIndex": "0x0",
          "removed": false
        }
      ],
      "status": "0x1",
      "logsBloom": "0x00000000000000000000000000000000000000000000000000000000000000000000000000000000000000000080000000008000000000000000000000000000000000000000000000000000000000800000000000000000000100000000000000000000000000000000000000000000000000000800001080000000000000000000000000000000000000000000000000000000000000000010000000000000200000000000000000000000000000000000000000000000000000000000004000000000000000000001800000000000000000000000000000100000000000000000000000000000000000000000000000000000000000000000000000100040",
      "type": "0x2",
      "effectiveGasPrice": "0xb2d05e10"
    }
  ],
  "libraries": [],
  "pending": [],
  "returns": {},
  "timestamp": 1716463301,
  "chain": 80002,
  "commit": "47e1ff6"
}