{
  "transactions": [
    {
      "hash": "0x5cc0eb1af0e8b72439baeb4e72225845fb5362f219bd33f61292c28199483d9d",
      "transactionType": "CALL",
      "contractName": null,
      "contractAddress": "0x815B6202aEF5199e3DE73688A969D26D1506C55B",
      "function": "configueMirroring(address,address)",
      "arguments": [
        "0x088725845c1205853847f501236Cc9676A8D5d5B",
        "0xF731a40b4834626bbFaAA330aB71e41B2de8Ffff"
      ],
      "transaction": {
        "type": "0x02",
        "from": "0x51c2b2e1073432eac568187bab883ede1e31e9ea",
        "to": "0x815b6202aef5199e3de73688a969d26d1506c55b",
        "gas": "0x11870",
        "value": "0x0",
        "data": "0x798ef2f3000000000000000000000000088725845c1205853847f501236cc9676a8d5d5b000000000000000000000000f731a40b4834626bbfaaa330ab71e41b2de8ffff",
        "nonce": "0x4",
        "accessList": []
      },
      "additionalContracts": [],
      "isFixedGasLimit": false
    },
    {
      "hash": "0x8e59c19a7eeca8a037f64f095dffcb9b23d9a4886989aed40215b3f9e25c9287",
      "transactionType": "CALL",
      "contractName": null,
      "contractAddress": "0x815B6202aEF5199e3DE73688A969D26D1506C55B",
      "function": "configueMirroring(address,address)",
      "arguments": [
        "0xF731a40b4834626bbFaAA330aB71e41B2de8Ffff",
        "0x088725845c1205853847f501236Cc9676A8D5d5B"
      ],
      "transaction": {
        "type": "0x02",
        "from": "0x51c2b2e1073432eac568187bab883ede1e31e9ea",
        "to": "0x815b6202aef5199e3de73688a969d26d1506c55b",
        "gas": "0x11870",
        "value": "0x0",
        "data": "0x798ef2f3000000000000000000000000f731a40b4834626bbfaaa330ab71e41b2de8ffff000000000000000000000000088725845c1205853847f501236cc9676a8d5d5b",
        "nonce": "0x5",
        "accessList": []
      },
      "additionalContracts": [],
      "isFixedGasLimit": false
    }
  ],
  "receipts": [
    {
      "transactionHash": "0x5cc0eb1af0e8b72439baeb4e72225845fb5362f219bd33f61292c28199483d9d",
      "transactionIndex": "0x0",
      "blockHash": "0x4cbdbe14148eeb46842f969beef63f73efe6a82e188b1956ec3fc8042c13bde9",
      "blockNumber": "0x70d5b5",
      "from": "0x51c2B2E1073432Eac568187bAB883ede1E31E9EA",
      "to": "0x815B6202aEF5199e3DE73688A969D26D1506C55B",
      "cumulativeGasUsed": "0xbfc1",
      "gasUsed": "0xbfc1",
      "contractAddress": null,
      "logs": [
        {
          "address": "0x0000000000000000000000000000000000001010",
          "topics": [
            "0x4dfe1bbbcf077ddc3e01291eea2d5c70c2b422b415d95645b9adcfd678cb1d63",
            "0x0000000000000000000000000000000000000000000000000000000000001010",
            "0x00000000000000000000000051c2b2e1073432eac568187bab883ede1e31e9ea",
            "0x0000000000000000000000006ab3d36c46ecfb9b9c0bd51cb1c3da5a2c81cea6"
          ],
          "data": "0x000000000000000000000000000000000000000000000000000085f04538de0000000000000000000000000000000000000000000000000002a3d010d2999a7700000000000000000000000000000000000000000000018ccd407229ceadf7bd00000000000000000000000000000000000000000000000002a34a208d60bc7700000000000000000000000000000000000000000000018ccd40f81a13e6d5bd",
          "blockHash": "0x4cbdbe14148eeb46842f969beef63f73efe6a82e188b1956ec3fc8042c13bde9",
          "blockNumber": "0x70d5b5",
          "transactionHash": "0x5cc0eb1af0e8b72439baeb4e72225845fb5362f219bd33f61292c28199483d9d",
          "transactionIndex": "0x0",
          "logIndex": "0x0",
          "removed": false
        }
      ],
      "status": "0x1",
      "logsBloom": "0x00000000080000000000000000000000000000000000000000000000000000000000000000000000000000000000000000008000000000000000000000000000000000080000000000000000000000800000000000000000000100000000000000000000000000000000000000000000000000000000001080000000000000000000000000000000000000000000000000000000000000000010000000000000200000000000000000000000000000000000000000000000000000000000004000000000000000000001800000000000000000010000000000100000000000000000000000000000000000000000000000000000000000000000000000100000",
      "type": "0x2",
      "effectiveGasPrice": "0xb2d05e10"
    },
    {
      "transactionHash": "0x8e59c19a7eeca8a037f64f095dffcb9b23d9a4886989aed40215b3f9e25c9287",
      "transactionIndex": "0x1",
      "blockHash": "0x4cbdbe14148eeb46842f969beef63f73efe6a82e188b1956ec3fc8042c13bde9",
      "blockNumber": "0x70d5b5",
      "from": "0x51c2B2E1073432Eac568187bAB883ede1E31E9EA",
      "to": "0x815B6202aEF5199e3DE73688A969D26D1506C55B",
      "cumulativeGasUsed": "0x17f82",
      "gasUsed": "0xbfc1",
      "contractAddress": null,
      "logs": [
        {
          "address": "0x0000000000000000000000000000000000001010",
          "topics": [
            "0x4dfe1bbbcf077ddc3e01291eea2d5c70c2b422b415d95645b9adcfd678cb1d63",
            "0x0000000000000000000000000000000000000000000000000000000000001010",
            "0x00000000000000000000000051c2b2e1073432eac568187bab883ede1e31e9ea",
            "0x0000000000000000000000006ab3d36c46ecfb9b9c0bd51cb1c3da5a2c81cea6"
          ],
          "data": "0x000000000000000000000000000000000000000000000000000085f04538de0000000000000000000000000000000000000000000000000002a34a208d54c06700000000000000000000000000000000000000000000018ccd40f81a13e6d5bd00000000000000000000000000000000000000000000000002a2c430481be26700000000000000000000000000000000000000000000018ccd417e0a591fb3bd",
          "blockHash": "0x4cbdbe14148eeb46842f969beef63f73efe6a82e188b1956ec3fc8042c13bde9",
          "blockNumber": "0x70d5b5",
          "transactionHash": "0x8e59c19a7eeca8a037f64f095dffcb9b23d9a4886989aed40215b3f9e25c9287",
          "transactionIndex": "0x1",
          "logIndex": "0x1",
          "removed": false
        }
      ],
      "status": "0x1",
      "logsBloom": "0x00000000080000000000000000000000000000000000000000000000000000000000000000000000000000000000000000008000000000000000000000000000000000080000000000000000000000800000000000000000000100000000000000000000000000000000000000000000000000000000001080000000000000000000000000000000000000000000000000000000000000000010000000000000200000000000000000000000000000000000000000000000000000000000004000000000000000000001800000000000000000010000000000100000000000000000000000000000000000000000000000000000000000000000000000100000",
      "type": "0x2",
      "effectiveGasPrice": "0xb2d05e10"
    }
  ],
  "libraries": [],
  "pending": [],
  "returns": {},
  "timestamp": 1716463373,
  "chain": 80002,
  "commit": "47e1ff6"
}