{
  "transactions": [
    {
      "hash": "0x691cd670cf516f36f54e3b2982ca6ff514808e3dbd688227873444b1ff88b75f",
      "transactionType": "CALL",
      "contractName": null,
      "contractAddress": "0xF06D1D175A9E015D20622a3C86D0cF23a81391a5",
      "function": "addSupportedToken(address)",
      "arguments": [
        "0x088725845c1205853847f501236Cc9676A8D5d5B"
      ],
      "transaction": {
        "type": "0x02",
        "from": "0x51c2b2e1073432eac568187bab883ede1e31e9ea",
        "to": "0xf06d1d175a9e015d20622a3c86d0cf23a81391a5",
        "gas": "0x1f606",
        "value": "0x0",
        "data": "0x6d69fcaf000000000000000000000000088725845c1205853847f501236cc9676a8d5d5b",
        "nonce": "0xf",
        "accessList": []
      },
      "additionalContracts": [],
      "isFixedGasLimit": false
    }
  ],
  "receipts": [
    {
      "transactionHash": "0x691cd670cf516f36f54e3b2982ca6ff514808e3dbd688227873444b1ff88b75f",
      "transactionIndex": "0xb",
      "blockHash": "0xba1c15aa34423d4f26b274a2fc2866647ee46cf6861924416f7cf37937e703ad",
      "blockNumber": "0x5af59c",
      "from": "0x51c2B2E1073432Eac568187bAB883ede1E31E9EA",
      "to": "0xF06D1D175A9E015D20622a3C86D0cF23a81391a5",
      "cumulativeGasUsed": "0x7daa7",
      "gasUsed": "0x16b75",
      "contractAddress": null,
      "logs": [],
      "status": "0x1",
      "logsBloom": "0x00000000000000000000000000000000000000000000000000000000000000000000000000000000000000000000000000000000000000000000000000000000000000000000000000000000000000000000000000000000000000000000000000000000000000000000000000000000000000000000000000000000000000000000000000000000000000000000000000000000000000000000000000000000000000000000000000000000000000000000000000000000000000000000000000000000000000000000000000000000000000000000000000000000000000000000000000000000000000000000000000000000000000000000000000000000",
      "type": "0x2",
      "effectiveGasPrice": "0x1da053b0b"
    }
  ],
  "libraries": [],
  "pending": [],
  "returns": {},
  "timestamp": 1716462962,
  "chain": 11155111,
  "commit": "47e1ff6"
}