{
  "transactions": [
    {
      "hash": "0xf451f471fd6df67af9e36b3288124a3d62427144ed8593f5ab940c2e47398050",
      "transactionType": "CALL",
      "contractName": null,
      "contractAddress": "0x088725845c1205853847f501236Cc9676A8D5d5B",
      "function": "approve(address,uint256)",
      "arguments": [
        "0xF06D1D175A9E015D20622a3C86D0cF23a81391a5",
        "5000000000000000000"
      ],
      "transaction": {
        "type": "0x02",
        "from": "0x51c2b2e1073432eac568187bab883ede1e31e9ea",
        "to": "0x088725845c1205853847f501236cc9676a8d5d5b",
        "gas": "0x10915",
        "value": "0x0",
        "data": "0x095ea7b3000000000000000000000000f06d1d175a9e015d20622a3c86d0cf23a81391a50000000000000000000000000000000000000000000000004563918244f40000",
        "nonce": "0x12",
        "accessList": []
      },
      "additionalContracts": [],
      "isFixedGasLimit": false
    },
    {
      "hash": "0x4d393e4104713a3497e078a6aecb14f976cd19ae6467569ffc01d5d4adc23b7e",
      "transactionType": "CALL",
      "contractName": null,
      "contractAddress": "0xF06D1D175A9E015D20622a3C86D0cF23a81391a5",
      "function": "deposit(address,uint256)",
      "arguments": [
        "0x088725845c1205853847f501236Cc9676A8D5d5B",
        "5000000000000000000"
      ],
      "transaction": {
        "type": "0x02",
        "from": "0x51c2b2e1073432eac568187bab883ede1e31e9ea",
        "to": "0xf06d1d175a9e015d20622a3c86d0cf23a81391a5",
        "gas": "0x4e083",
        "value": "0x0",
        "data": "0x47e7ef24000000000000000000000000088725845c1205853847f501236cc9676a8d5d5b0000000000000000000000000000000000000000000000004563918244f40000",
        "nonce": "0x13",
        "accessList": []
      },
      "additionalContracts": [],
      "isFixedGasLimit": false
    }
  ],
  "receipts": [
    {
      "transactionHash": "0xf451f471fd6df67af9e36b3288124a3d62427144ed8593f5ab940c2e47398050",
      "transactionIndex": "0x5",
      "blockHash": "0x4dacfc0793dd816fd60f1833c8ffe6f47d0c5d27de6fdaa28d4a4d21b77dd33d",
      "blockNumber": "0x5af5e9",
      "from": "0x51c2B2E1073432Eac568187bAB883ede1E31E9EA",
      "to": "0x088725845c1205853847f501236Cc9676A8D5d5B",
      "cumulativeGasUsed": "0x58e80",
      "gasUsed": "0xb541",
      "contractAddress": null,
      "logs": [
        {
          "address": "0x088725845c1205853847f501236Cc9676A8D5d5B",
          "topics": [
            "0x8c5be1e5ebec7d5bd14f71427d1e84f3dd0314c0f7b2291e5b200ac8c7c3b925",
            "0x00000000000000000000000051c2b2e1073432eac568187bab883ede1e31e9ea",
            "0x000000000000000000000000f06d1d175a9e015d20622a3c86d0cf23a81391a5"
          ],
          "data": "0x0000000000000000000000000000000000000000000000004563918244f40000",
          "blockHash": "0x4dacfc0793dd816fd60f1833c8ffe6f47d0c5d27de6fdaa28d4a4d21b77dd33d",
          "blockNumber": "0x5af5e9",
          "transactionHash": "0xf451f471fd6df67af9e36b3288124a3d62427144ed8593f5ab940c2e47398050",
          "transactionIndex": "0x5",
          "logIndex": "0x3",
          "removed": false
        }
      ],
      "status": "0x1",
      "logsBloom": "0x00000000000000000000000000000000000000000000000000000000000000000000000000000000000000000000000000000000000000000000000000200000000000000000000000000000000000000000000000000000000000000000000000000000000000000000000000001000000000000000001020000000000000000000000000001000000000000000000000000000000000000010000000000000020000000000004000000000000000000000000000000000000000000000000000000000000000000000800000000000000000000000000000001000000000000010000080000000000000000000000000000000000000000000000000000000",
      "type": "0x2",
      "effectiveGasPrice": "0x1d5905de8"
    },
    {
      "transactionHash": "0x4d393e4104713a3497e078a6aecb14f976cd19ae6467569ffc01d5d4adc23b7e",
      "transactionIndex": "0x6",
      "blockHash": "0x4dacfc0793dd816fd60f1833c8ffe6f47d0c5d27de6fdaa28d4a4d21b77dd33d",
      "blockNumber": "0x5af5e9",
      "from": "0x51c2B2E1073432Eac568187bAB883ede1E31E9EA",
      "to": "0xF06D1D175A9E015D20622a3C86D0cF23a81391a5",
      "cumulativeGasUsed": "0x91667",
      "gasUsed": "0x387e7",
      "contractAddress": null,
      "logs": [
        {
          "address": "0x088725845c1205853847f501236Cc9676A8D5d5B",
          "topics": [
            "0xddf252ad1be2c89b69c2b068fc378daa952ba7f163c4a11628f55a4df523b3ef",
            "0x00000000000000000000000051c2b2e1073432eac568187bab883ede1e31e9ea",
            "0x000000000000000000000000f06d1d175a9e015d20622a3c86d0cf23a81391a5"
          ],
          "data": "0x0000000000000000000000000000000000000000000000004563918244f40000",
          "blockHash": "0x4dacfc0793dd816fd60f1833c8ffe6f47d0c5d27de6fdaa28d4a4d21b77dd33d",
          "blockNumber": "0x5af5e9",
          "transactionHash": "0x4d393e4104713a3497e078a6aecb14f976cd19ae6467569ffc01d5d4adc23b7e",
          "transactionIndex": "0x6",
          "logIndex": "0x4",
          "removed": false
        },
        {
          "address": "0xF06D1D175A9E015D20622a3C86D0cF23a81391a5",
          "topics": [
            "0x6b9c0faf86552282d525a58c725c40f0d9aee3989ea5fdced0e1036bf03e8b53",
            "0x0000000000000000000000000000000000000000000000000000000000000000"
          ],
          "data": "0x000000000000000000000000088725845c1205853847f501236cc9676a8d5d5b00000000000000000000000051c2b2e1073432eac568187bab883ede1e31e9ea0000000000000000000000000000000000000000000000004563918244f40000",
          "blockHash": "0x4dacfc0793dd816fd60f1833c8ffe6f47d0c5d27de6fdaa28d4a4d21b77dd33d",
          "blockNumber": "0x5af5e9",
          "transactionHash": "0x4d393e4104713a3497e078a6aecb14f976cd19ae6467569ffc01d5d4adc23b7e",
          "transactionIndex": "0x6",
          "logIndex": "0x5",
          "removed": false
        }
      ],
      "status": "0x1",
      "logsBloom": "0x00000000000000000000000000000000020000000000000000000000020000000000000000000000000000000000000000000000000000000000000000000000000000000000000000000008000000000000000000000000000000000000000000000000020000000000000000001800000000000000001020000010000000000000000000001000000100000000000000000000000000000010000000000040000080000000004000000000000000000000000000000000000000000000000000000802000000000000800000000000000000000000000000001000000020000000000080000000000000000000000000000000000000000000000000000000",
      "type": "0x2",
      "effectiveGasPrice": "0x1d5905de8"
    }
  ],
  "libraries": [],
  "pending": [],
  "returns": {},
  "timestamp": 1716463936,
  "chain": 11155111,
  "commit": "47e1ff6"
}