{
  "transactions": [
    {
      "hash": "0x425b126ad1e3d518253d54c9c073dfc6943a2d8b2d7e80697a94ac74d5c942ae",
      "transactionType": "CALL",
      "contractName": null,
      "contractAddress": "0x088725845c1205853847f501236Cc9676A8D5d5B",
      "function": "approve(address,uint256)",
      "arguments": [
        "0xF06D1D175A9E015D20622a3C86D0cF23a81391a5",
        "100000000000000000000"
      ],
      "transaction": {
        "type": "0x02",
        "from": "0x51c2b2e1073432eac568187bab883ede1e31e9ea",
        "to": "0x088725845c1205853847f501236cc9676a8d5d5b",
        "gas": "0xfa6a",
        "value": "0x0",
        "data": "0x095ea7b3000000000000000000000000f06d1d175a9e015d20622a3c86d0cf23a81391a50000000000000000000000000000000000000000000000056bc75e2d63100000",
        "nonce": "0x17",
        "accessList": []
      },
      "additionalContracts": [],
      "isFixedGasLimit": false
    },
    {
      "hash": "0x8714149840209c6a9db1a9938eda6c6d9d54f1cf1eed5e2188c710f83ae7f501",
      "transactionType": "CALL",
      "contractName": null,
      "contractAddress": "0xF06D1D175A9E015D20622a3C86D0cF23a81391a5",
      "function": "deposit(address,uint256)",
      "arguments": [
        "0x088725845c1205853847f501236Cc9676A8D5d5B",
        "100000000000000000000"
      ],
      "transaction": {
        "type": "0x02",
        "from": "0x51c2b2e1073432eac568187bab883ede1e31e9ea",
        "to": "0xf06d1d175a9e015d20622a3c86d0cf23a81391a5",
        "gas": "0x4936c",
        "value": "0x0",
        "data": "0x47e7ef24000000000000000000000000088725845c1205853847f501236cc9676a8d5d5b0000000000000000000000000000000000000000000000056bc75e2d63100000",
        "nonce": "0x18",
        "accessList": []
      },
      "additionalContracts": [],
      "isFixedGasLimit": false
    }
  ],
  "receipts": [
    {
      "transactionHash": "0x425b126ad1e3d518253d54c9c073dfc6943a2d8b2d7e80697a94ac74d5c942ae",
      "transactionIndex": "0xe",
      "blockHash": "0x1d460366152d59254971b8b38b1829b3e5c7d40a2544d8bffc7b4b38512b8309",
      "blockNumber": "0x5b0eb3",
      "from": "0x51c2B2E1073432Eac568187bAB883ede1E31E9EA",
      "to": "0x088725845c1205853847f501236Cc9676A8D5d5B",
      "cumulativeGasUsed": "0x60fec",
      "gasUsed": "0xb54d",
      "contractAddress": null,
      "logs": [
        {
          "address": "0x088725845c1205853847f501236Cc9676A8D5d5B",
          "topics": [
            "0x8c5be1e5ebec7d5bd14f71427d1e84f3dd0314c0f7b2291e5b200ac8c7c3b925",
            "0x00000000000000000000000051c2b2e1073432eac568187bab883ede1e31e9ea",
            "0x000000000000000000000000f06d1d175a9e015d20622a3c86d0cf23a81391a5"
          ],
          "data": "0x0000000000000000000000000000000000000000000000056bc75e2d63100000",
          "blockHash": "0x1d460366152d59254971b8b38b1829b3e5c7d40a2544d8bffc7b4b38512b8309",
          "blockNumber": "0x5b0eb3",
          "transactionHash": "0x425b126ad1e3d518253d54c9c073dfc6943a2d8b2d7e80697a94ac74d5c942ae",
          "transactionIndex": "0xe",
          "logIndex": "0x3",
          "removed": false
        }
      ],
      "status": "0x1",
      "logsBloom": "0x00000000000000000000000000000000000000000000000000000000000000000000000000000000000000000000000000000000000000000000000000200000000000000000000000000000000000000000000000000000000000000000000000000000000000000000000000001000000000000000001020000000000000000000000000001000000000000000000000000000000000000010000000000000020000000000004000000000000000000000000000000000000000000000000000000000000000000000800000000000000000000000000000001000000000000010000080000000000000000000000000000000000000000000000000000000",
      "type": "0x2",
      "effectiveGasPrice": "0x2166cce1e"
    },
    {
      "transactionHash": "0x8714149840209c6a9db1a9938eda6c6d9d54f1cf1eed5e2188c710f83ae7f501",
      "transactionIndex": "0xf",
      "blockHash": "0x1d460366152d59254971b8b38b1829b3e5c7d40a2544d8bffc7b4b38512b8309",
      "blockNumber": "0x5b0eb3",
      "from": "0x51c2B2E1073432Eac568187bAB883ede1E31E9EA",
      "to": "0xF06D1D175A9E015D20622a3C86D0cF23a81391a5",
      "cumulativeGasUsed": "0x96003",
      "gasUsed": "0x35017",
      "contractAddress": null,
      "logs": [
        {
          "address": "0x088725845c1205853847f501236Cc9676A8D5d5B",
          "topics": [
            "0xddf252ad1be2c89b69c2b068fc378daa952ba7f163c4a11628f55a4df523b3ef",
            "0x00000000000000000000000051c2b2e1073432eac568187bab883ede1e31e9ea",
            "0x000000000000000000000000f06d1d175a9e015d20622a3c86d0cf23a81391a5"
          ],
          "data": "0x0000000000000000000000000000000000000000000000056bc75e2d63100000",
          "blockHash": "0x1d460366152d59254971b8b38b1829b3e5c7d40a2544d8bffc7b4b38512b8309",
          "blockNumber": "0x5b0eb3",
          "transactionHash": "0x8714149840209c6a9db1a9938eda6c6d9d54f1cf1eed5e2188c710f83ae7f501",
          "transactionIndex": "0xf",
          "logIndex": "0x4",
          "removed": false
        },
        {
          "address": "0xF06D1D175A9E015D20622a3C86D0cF23a81391a5",
          "topics": [
            "0x6b9c0faf86552282d525a58c725c40f0d9aee3989ea5fdced0e1036bf03e8b53",
            "0x0000000000000000000000000000000000000000000000000000000000000002"
          ],
          "data": "0x000000000000000000000000088725845c1205853847f501236cc9676a8d5d5b00000000000000000000000051c2b2e1073432eac568187bab883ede1e31e9ea0000000000000000000000000000000000000000000000056bc75e2d63100000",
          "blockHash": "0x1d460366152d59254971b8b38b1829b3e5c7d40a2544d8bffc7b4b38512b8309",
          "blockNumber": "0x5b0eb3",
          "transactionHash": "0x8714149840209c6a9db1a9938eda6c6d9d54f1cf1eed5e2188c710f83ae7f501",
          "transactionIndex": "0xf",
          "logIndex": "0x5",
          "removed": false
        }
      ],
      "status": "0x1",
      "logsBloom": "0x04000000000000000000000000000000020000000000000000000000020000000000000000000000000000000000000000000000000000000000000000000000000000000000000000000008000000000000000000000000000000000000000000000000000000000000000000001000000000000000001020000010000000000000000000001000000100000000000000000000000000000010000000000040000080000000004000000100000000000000000000000000000000000000000000000802000000000000800000000000000000000000000000001000000000000000000080000000000000000000000000000000008000000000000000000000",
      "type": "0x2",
      "effectiveGasPrice": "0x2166cce1e"
    }
  ],
  "libraries": [],
  "pending": [],
  "returns": {},
  "timestamp": 1716545330,
  "chain": 11155111,
  "commit": "47e1ff6"
}